:1000000080600020CD4700008B190200B947000036
:10001000B9470000B9470000B947000000000000E0
:100020000000000000000000000000000548000083
:10003000B947000000000000054A0000B947000071
:100040007D4A00000D7A01007D4A00007D4A0000D3
:100050007D4A00007D4A00007D4A00007D4A000084
:100060007D4A00007D4A00007D4A00007D4A000074
:100070007D4A00007D4A00007D4A00007D4A000064
:100080007D4A00007D4A00007D4A00007D4A000054
:100090007D4A00007D4A00007D4A00007D4A000044
:1000A0007D4A00007D4A00007D4A00007D4A000034
:1000B0007D4A00007D4A00007D4A00007D4A000024
:1000C0007D4A00007D4A00007D4A00007D4A000014
:1000D0007D4A00007D4A00007D4A00007D4A000004
:1000E0007D4A00007D4A00007D4A00007D4A0000F4
:1000F0007D4A00007D4A00007D4A00007D4A0000E4
:1001000053B94AB9002908BF00281CBF4FF0FF317E
:100110004FF0FF3000F00CB8ADF1080C6DE904CEE3
:1001200000F022F8DDF804E0DDE9022304B07047B6
:10013000704700BF10F8012B11F8013B012A28BFBE
:100140009A42F7D0D01A7047034611F8012B03F8F2
:10015000012B002AF9D17047034613F8012B002A1E
:10016000FBD1181A013870472DE9F0478C468E46AE
:10017000089E154604461946002B40F0D080724573
:1001800047D9B2FA82F74FB1C7F120030EFA07FC44
:1001900020FA03F3BD4043EA0C0CBC404FEA154E75
:1001A000A8B2BCFBFEF8230C0EFB18CC08FB00F930
:1001B00043EA0C43994528D9EB1808F1FF3204D2E1
:1001C000994502D9A8F102022B44A3EB0903A4B27A
:1001D000B3FBFEFC0EFB1C330CFB00F044EA0344B3
:1001E000A04214D92C190CF1FF3304D2A04202D939
:1001F000ACF102032C44241A43EA02401EB1FC4035
:10020000002334607360BDE8F0874246DDE7634653
:10021000F1E7002A79D0B2FA82F3002B3FD01946D9
:10022000C1F1200302FA01F52EFA03F20EFA01FEE3
:1002300020FA03F343EA0E034FEA154E00FA01F4E5
:10024000B2FBFEFCAFB20EFB1C201A0C0CFB07F835
:1002500042EA004290455AD9AA180CF1FF3004D264
:10026000904502D9ACF102002A44A2EB08029BB2ED
:10027000B2FBFEFC0EFB1C220CFB07F743EA024319
:100280009F4246D9EB180CF1FF3204D29F4202D9AB
:10029000ACF102022B44DB1B42EA004202E0AEEB6F
:1002A000020301224FEA154EAFB2B3FBFEFC200C55
:1002B0000EFB1C330CFB07F840EA034398452AD990
:1002C000EB180CF1FF3004D2984502D9ACF10200D2
:1002D0002B44A3EB0803A4B2B3FBFEFC0EFB1C33C0
:1002E0000CFB07F744EA0344A74216D92C190CF17A
:1002F000FF3304D2A74202D9ACF102032C44E41B21
:1003000043EA00400F46114678E71F2188E7604620
:10031000ABE76246BFE76046DBE76346EFE773455E
:1003200006D916B9002108466DE7C6E9000EF9E7BF
:10033000B3FA83F787B9734501D3824207D8841A89
:100340006EEB030301209C461EB900215BE7384693
:10035000FAE7C6E9004CF8E7C7F1200CBB4022FAE7
:100360000CF51D4320FA0CF12EFA0CF30EFA07FEE1
:1003700041EA0E014FEA154900FA07F4B3FBF9F818
:100380001FFA85FE09FB18300B0C08FB0EFA43EA36
:1003900000439A4502FA07F240D9EB1808F1FF3002
:1003A00004D29A4502D9A8F102002B44A3EB0A0318
:1003B00089B2B3FBF9F809FB183308FB0EFE41EADA
:1003C00003418E452CD9691808F1FF3304D28E45BC
:1003D00002D9A8F10203294443EA0040A0FB029895
:1003E000A1EB0E014145CE46434602D306D14C4512
:1003F00004D2B9EB020E68EB05030138002EA4D03D
:10040000B4EB0E0261EB030101FA0CFC22FA07F3D4
:100410004CEA0303F940C6E9003196E74046C5E7D8
:100420004346D9E700000000F0B5002285B0114630
:1004300002AF40F6034006F045F8044600285BD1C1
:1004400005F002FE21463A1D41F2030006F03AF89B
:100450000446002850D17A68294DD168D1F80100AE
:10046000D1F8051005F1780303C3104604F0F6FD3A
:1004700021463A1D41F2010006F024F80446002806
:100480003AD17868C3685A7885F870205A88A5F8F8
:1004900072201A7985F87120B3F80720A5F8742026
:1004A000B3F80530A5F8763004F0D8FD21463A1DA2
:1004B00041F2020006F006F80446E8B9D7F804C095
:1004C000DCF80C2005F18006531C4132186859688D
:1004D000344603C4083393422646F7D1604604F0FD
:1004E000BDFD95F87C305A0610D4064A0648012115
:1004F00021F0B2FC6FF0120420460C37BD46F0BD6F
:1005000000000020B5940200206A02003A1D00217C
:1005100042F2030005F0D6FF04460028ECD17A68C9
:10052000A94BD168D1F80100D1F8051003C31046DA
:1005300004F094FD21463A1D42F2020005F0C2FF8C
:1005400004460028D8D17E68F468B4F801309AB225
:1005500092B1E27882B1A5F8FC30E378032B06D0A3
:100560000322009299489A4A022120F0B1FFE278D2
:100570009848114624F0D0FA304604F06FFD95F803
:100580007C601F2316F02006A5F8103119D14FF01A
:10059000FF304FF0FF3105F07FFD0446002800F0EA
:1005A000BE8102210C3021F0B2FA012303704670A3
:1005B0002146324640F66D4005F084FF044600288F
:1005C0009AD195F89C301B0712D53A1D002142F2B2
:1005D0001C0005F077FF044600288DD17868C368B9
:1005E000D3F80120D3F80530C5E9382304F036FDEF
:1005F00095F8D8309E0623D5B91C384606F00AF87F
:10060000044600287FF478AF4FF0FF304FF0FF3101
:1006100005F042FD0646002800F0818104210C30DF
:1006200021F075FA3B8803807B884380224631465F
:1006300042F2240005F046FF044600287FF45CAF38
:1006400095F8D8305C0610D53A1D002142F22A00F8
:1006500005F038FF044600287FF44EAF7868C36881
:100660005B7885F8123104F0F9FC4FF0FF304FF061
:10067000FF3105F011FD0646002800F050810821E9
:100680000C3021F044FA95F8D84014F0400F40F2B5
:100690000223024608BF0323A0074CBF43F02C03EC
:1006A00043F00C03A10695F8D91048BF43F040036E
:1006B00011F0090F18BF43F4006304F0010443EA8A
:1006C0000410002121F0FFFB0022314642F201001C
:1006D00005F0F8FE044600287FF40EAF95F87C3054
:1006E000B5F8FC1098065CD4C9B93A1D41F2050072
:1006F00005F0E8FE044600287FF4FEAEB5F8FC30B5
:100700007C684BB9E368B3F80120A5F8FC209A880F
:100710003048114624F000FA204604F09FFC4FF0C8
:10072000FF304FF0FF3105F0B7FC0446002800F021
:10073000F68008210C3021F0EAF995F8D830D90775
:10074000024638D424484FF0005121F0BCFB21462A
:10075000002240F6014005F0B5FE044600287FF473
:10076000CBAE01463A1D4FF6014005F0ABFE002826
:1007700038D01A4A1548022121F06EFBEB79002B84
:1007800040F0BD8021F09DFD044600287FF4B4AE0A
:1007900008F05AFA044600287FF4AEAE05F01CFEBD
:1007A000AAE60029BBD10E4A0848012121F054FBDA
:1007B0006FF00404A0E602A1D1E90001C5E700BF83
:1007C0009088000200800020D8000020206A0200EB
:1007D000D994020000010020108800024295020016
:1007E0001F9502007B68DC68B4F80130042B96BFCB
:1007F000584A594952F823106E468AB002AA5748FF
:10080000D3614FF400731384554BC2E9050142F8DC
:10081000103F54484FF4135121F031FBB4F801203C
:10082000B4F80330022AB54649D1052B47D84E4AC1
:1008300052F823106E468AB002AA4C48D3614FF496
:1008400000731384464BC2E9050142F8103F4FF490
:100850001351444821F013FB637994F806C0D4F88F
:100860000900032BB54698BF414AB4F8076094BF0E
:1008700052F8231038496C468CB002AADFF8F4E035
:10088000C2E9073C4FF4007393853B4BC2E905E195
:10089000C2E909604FF4735142F8103F314821F02A
:1008A000EEFAA546786804F0D9FB3A1D00214FF610
:1008B000024005F007FE044618B1304A5AE72649BF
:1008C000B8E77868C368B3F80130A5F8C13004F020
:1008D000C5FB95F8C1305A077FF550AF3A1D214648
:1008E0004FF6034005F0EEFD08B1254A42E778686F
:1008F000C3685B7885F8C03004F0B0FB3EE72E7823
:10090000002E7FF43FAF95F8C1309B061FD54FF006
:10091000FF304FF0FF3105F0BFFB044610B96FF018
:100920006804E9E506210C3021F0F1F8D5F8013032
:100930000360144B9B888380214632464FF6064065
:1009400005F0C0FD044600283FF41CAFD4E56FF06D
:100950008504D1E544700200C7920200669502004A
:1009600004000001206A02002C7002007F95020042
:100970001C7002009795020007000001C495020058
:10098000ED950200010000202DE9F843D0E9073879
:10099000856903EB08042F34A5420F46164619D883
:1009A000DFF86C80A3FB080117A3D3E90023FFF74E
:1009B000A7FB0346601BA0FB080123F07F4412A3A2
:1009C000D3E90023FFF79CFB20F07F403C603060C0
:1009D000BDE8F883DFF838900BA3D3E90023A5FB2B
:1009E0000901FFF78DFB20F07F440A480A2106A386
:1009F000D3E90023E8FB0901FFF782FB20F07F40E9
:100A00003C603060BDE8F8838D49FD1A07000000A6
:100A100000CA9A3B00166BF1002800F051812DE9C5
:100A2000F04FCB4C94F85E2012F001058DB040F0F1
:100A30003481607EFF2300F00300A37616F026FCCD
:100A400094F85E00420700F12C81627F94F829300F
:100A500004EB820204EB8303166AD3F82C8086B180
:100A6000BB48314611F00AF833785B0605D50621FC
:100A70000CF048FE002800F05581B548414610F0C2
:100A8000FDFF337813F00E0F40F0918063691BB1C6
:100A90000C200DB0BDE8F08F0EF048FE8146002816
:100AA00000F049810EF04EFE8246002800F04081A1
:100AB00011F006FA0546002800F05A81D0F88800A7
:100AC0004FF6FF73AB8405F1100B002800F0358161
:100AD00005F17C0205F178010CF020FEB5F87630C6
:100AE00023F4EF6323F0070343F48C7343F0010313
:100AF000A5F8763095F8373003F03F0363F07F03B5
:100B000085F8373095F88E3023F0070385F88E305E
:100B100095F83C3023F00F03002785F83C304FF464
:100B2000C023C5F88E312846C5E91277C5F888700C
:100B3000A5F88C7085F839706F85C5F82E702F6513
:100B4000A5F86071A5F89471A5F88A7113F04EF9B3
:100B500085F86471C5F8689111F07AFC95F89C31BC
:100B600060F3020385F89C3111F078FC95F89C3114
:100B700060F3C50385F89C3195F8623167F3410352
:100B8000012185F86231284611F0FCFF05F1E000F3
:100B900012F04CFFC4E9159AC4F814B0C5E9027705
:100BA0002F702D6117F0DCFB002840F0BD80237E04
:100BB0000121C3F342030DF12B008DF82B300CF013
:100BC0004FFF024600287DD04146304610F04EFDD2
:100BD000604A614BB4F85C800721E0FB02310025DC
:100BE0001846C4E9025558A3D3E900232570FFF73E
:100BF00087FA60600EF0CAF800F10907B8F1000F3B
:100C000007D1357805F00F05A5F10105B5FA85F591
:100C10006D09207E636865F3000010F00105207601
:100C200057D04E4A09920020106002254C4ADFF846
:100C3000348104930BAE019305920321CDE90200A8
:100C4000069400903B46CDF81C8008962A460B95EA
:100C50000DF0C0FF31460EF0FFFD98BB42490591F3
:100C60004AF2D8330093CDE90300CDE90100CDF875
:100C70001C80089606943B46012203210B950DF03B
:100C80008DFF31460EF0E8FDE0B994F85E300120AA
:100C9000034384F85E3016F0DBFA00200DB0BDE8A7
:100CA000F08F2A4604F15F01C0F3C00016F026FC65
:100CB000FF28A0763FF4C9AE284616F001FBC4E633
:100CC00010F06CBC6369002B3FF4E2AE10F03CFC0A
:100CD000DEE6224A2548049303F247130694029560
:100CE00091211360A8FB000301FB08311D4B079302
:100CF0001B4B05934FF6FF7309924FF002080393C5
:100D00000BAE11A3D3E90023CDF82C800896FFF792
:100D1000F7F93B46CDE900504246284603210DF045
:100D200059FFAEE71220B4E610F00EFC0320B0E647
:100D300048460EF001FD0720ABE605F18000C5F83E
:100D40008800C5E6AFF300808D49FD1A070000005A
:100D5000B026002000CA9A3B8C49FD1AA426002028
:100D6000E516010089EE000009140100002AE7845D
:100D700050460EF0EDFC48460EF0DEFCDBE700BF0F
:100D800070B5037E8AB0C3F342030D4604460121C9
:100D90000DF1230016468DF823300CF061FE31462C
:100DA0000246284610F062FC1D4A1E4B0721E0FB5C
:100DB0000231184618A3D3E90023FFF7A1F96368AD
:100DC0009842054621D21B1A00220192164A02932C
:100DD000164BA21AA3FB02320221520900230A4435
:100DE00009AE099112490591CDE903330321069615
:100DF000D2B2009318460DF043FF31460EF02CFDA1
:100E000038B9656000200AB070BDFBD9C21A002352
:100E1000DBE70C200AB070BD8D49FD1A0700000009
:100E200000CA9A3B8C49FD1AB02600204FECC44EF4
:100E300089EE0000000000002DE9F04F05468BB060
:100E40008B46012002219946144619F06FF80022C2
:100E50000221824601200CF0B5FC2F494FF4D472D8
:100E600028460CF03BFCC61C2C4B0093F6B20195B7
:100E70004B463246012100200DF050FF10F0FD0FCF
:100E800042D1274BA4FB0348204621A3D3E90023EA
:100E90004146FFF735F9089506956B680493214B99
:100EA00020F07F47A7FB0331E01A1F4B07934FF059
:100EB00007021E4B059302FB07114FF6FE7368EB0A
:100EC000010103934FF47A720023FFF719F9CDF86B
:100ED00000B0CDE901704B463246012100200DF0F3
:100EE0005DFE10F0FD0F0DD1BAF1000F02D10BB075
:100EF000BDE8F08F0122022110460BB0BDE8F04F93
:100F00000CF060BC00DEEFE700DEBAE7AFF3008074
:100F10008D49FD1A07000000981200207D1D010078
:100F200000CA9A3B8D49FD1A651D01000967010041
:100F30002DE9F0418468A28C4FF6FF739A428CB081
:100F400000F0C0800546204613F0CCF92B7D012B24
:100F500000F0E680022B00F0B88033B994F88E30B0
:100F600003F01803182B00F01C8194F86471002F13
:100F700040F0AE802B8AE68D94F93720CDE90A77D0
:100F8000002B00F0AC80002AC0F221810023A4F8DD
:100F90009031AB7CA28D03F00303551C012BADB245
:100FA00000F0BA80B4F89431002B00F0BF80AB425F
:100FB00040F237815B1B9BB2062BA4F894314FF0B3
:100FC00000028CBF00230123E2851F4694F83C20D9
:100FD00063F3820284F83C2029460DF12702204663
:100FE00012F040FF743000F01681B4F88E312BB14E
:100FF000AB4240F2BF805B1BA4F88E31B4F88A315B
:101000002BB1AB4240F2C6805B1BA4F88A31E58D60
:1010100017B9AE4200F0AC800135ADB294F8D130D2
:1010200013F0010609D1DDE90AC3B3BBBCF1000F1F
:1010300000F0E9801E46194630E094F9372023F08D
:101040000103002A84F8D130C0F28A8094F8760037
:10105000C0F3C00100F0070017F000F8B4F86E20EC
:10106000B4F86C301344E28B03F23F13134418447A
:101070008D4A8E4B0721E0FB0231184688A3D3E945
:101080000023FFF73DF8616820F07F408142DDE9F1
:101090000AC380F0B280461A60600021A28C2469E5
:1010A0000694CDE903570332814D0291CDE900C684
:1010B000D2B20121002005950DF0E2FD10F0FD0FE8
:1010C00040F0B4800CB0BDE8F0813D2784F8647135
:1010D000394620460CB0BDE8F04111F079BA002A3B
:1010E000B8BF84F8D570AB7CA28D03F00303551C08
:1010F000012BADB210D0B4F89031002B3FF452AFB9
:10110000AB4240F29A805B1BA4F89031B4F8943162
:10111000002B7FF44CAF59E70023A4F8943155E736
:101120000023A4F88E31A4F88A311EE7E38C052B46
:101130008BBF40F2E2424FF4FA725A4303FB0222A1
:10114000B4F8923142F2107101FB0323013BB3FB6F
:10115000F2F39BB2A4F89431002B7FF428AF35E76B
:1011600094F87700012100F0070016F079FF75E789
:101170003D4653E70EF02CFB0146002864D00023C7
:10118000A4F88E31A38CC3801B23037100680EF07A
:10119000F1FA33E70023A4F88A31204612F0F4FE76
:1011A00035E7218DB4F88C218B1D9A42C4BF931F63
:1011B0005B1AB4F88811CCBF9BB21346994256D043
:1011C000A4F88831A4F88A31A4F88E21CDE694F8E9
:1011D000D530002B3CD0013B84F8D53004F1E00839
:1011E000404612F065FC002855D0404612F060FCE5
:1011F000002842D00023E385C8E6091A6060A3BB3B
:1012000051EA0C021ED115B9002F3FF45BAF002646
:101210003146334642E79DF82710204611F0D8F9B1
:1012200050E70821204611F0D3F94BE70EF03EFBC2
:1012300084423FF447AF00DE44E73E21204611F0F0
:10124000C7F93FE71E4629E70123A4F88E31D5E60A
:101250000AAA0BA92846FFF797FBDDE90A231343E7
:10126000BCD0237884F8D530B8E7002616E7B4F868
:101270008E1100297FF479AEA4E70246D4E91E015D
:101280000CF064FA0028B5D194F83C301B0744BF39
:10129000238DE3857AE6FF2011F05CF9A5E700BF16
:1012A0008D49FD1A0700000000CA9A3B8C49FD1ABF
:1012B000BD1D0100000000002DE9F04F87B0B0F81F
:1012C0006071BDF84C900091CDE90423B0F8243151
:1012D000BDF840A01F44BFB20446A7EB090390F835
:1012E0007600D4F81C819EB2BDF844300193C0F35F
:1012F000C001BDF84830039600F00700029316F0D5
:10130000ADFEE58C052D40F2A38015FB06F5ADB2D0
:1013100040F2E24BBAF1050F40F28E80B4F86E2035
:10132000B4F86C30134403F2D5130344764A77487B
:101330000721E3FB02014FF09613E3619623238418
:101340006FA3D3E90023FEF7DBFE564620F07F4073
:1013500040F2E2430BFB05F203FB06F6531E334457
:10136000B3FBF6F31FFA83FB60600BFB06F08242CF
:101370005D4653D26449801AA0FB010160A3D3E902
:101380000023FEF7BDFE20F07F408044B4F8242106
:10139000B4F86031A9EB07094D44ADB213442B44B6
:1013A000A4F86031638D13441D4494F8373065858B
:1013B000DB0955D100DE00273546019B2385029BC2
:1013C000A4F8923131462046A4F826A012F076FD0A
:1013D0004F4B218D3344881DB3FBF6F39AB29042F4
:1013E000A4F88C2104D2C1F57F41FA310A4492B2AB
:1013F000009BA4F8882113B10023A4F8943143463C
:101400002A4639462046FFF717FD94F8623143F02B
:10141000010384F8623107B0BDE8F08F121A3A4830
:10142000A2FB000136A3D3E90023FEF769FE20F0FA
:101430007F40A8EB0008A9E74FF096130AF10106D8
:10144000E36196232384B6B20A204FF4FA7381E74E
:10145000039B013515FB03F5ADB24FF4FA7B59E759
:10146000216CA36C284F01FB0233039A01FB12335A
:10147000A3640023C4F8DC3016F0C4FF054694F8DA
:10148000D400C0F3420016F0BFFF054406FB05F58B
:10149000204B1E4805F5742505F23F25A3FB0535B5
:1014A000AD0CA36C25640BFB05FB72085B44963AFC
:1014B000934228BF1346C4E91123049B40F2E2493A
:1014C00009FB03F307212365EBFB07010CA3D3E919
:1014D0000023FEF715FE104B059AA8EB0008A3FBAE
:1014E0000230800A09FB00F0A0FB070104A3D3E946
:1014F0000023FEF705FE751B20F07F475DE700BF68
:101500008D49FD1A0700000000CA9A3B8C49FD1A5C
:101510007FC3C90183DE1B435917B7D10000000008
:101520002DE9F04F0D46166895F8118009681446AC
:10153000027FD1F8009093B08346C2F38012D0F8B6
:101540001E008DF83720B8F1FF0FBBF82220109055
:10155000ADF8442057D110AB93E803000E90ADF8DE
:101560003C105A46BBF82E1052F82EAB9278A2725D
:101570002181DBF82A206260DBF83A20C4F82220BF
:1015800004F122009BF83E20027105210CF068FA5C
:1015900094F8272000F03F0060F3050284F827202C
:1015A0009BF83F20C2F3040184F82810BBF83410E4
:1015B000E182012802F01F0289B20AD91B3202F02F
:1015C0001F020B2A05D8063989B240F67A429142A9
:1015D00025D90021C9F8081094F82C2061F30002E5
:1015E00084F82C20DBF80C400125504659468BF836
:1015F00004500EF0B3F82068257121460EF0BAF8B9
:1016000013B0BDE8F08F0EAA0DF13701404615F07A
:101610007DFB9DF8372002328DF83720A1E72A683C
:1016200000215160BBF83620E78A228340F2E24372
:1016300003FB07F73046BBF832300B9312F052FC35
:101640009BF83F2096F8D410520962F3430186F8C4
:10165000D41016F0D7FE0A9096F8D400C0F34200DA
:1016600016F0D2FE0A9A104407FB00F0AE4A00F5CD
:10167000742000F23F20A2FB00207A08800C963AEA
:10168000206362639BF8312040F2E24303FB02F2E5
:101690006264BBF83820A6F892213946304612F031
:1016A0000DFCA24AA249C6F898113A44B2FBF7F2DF
:1016B00090B2A6F88C01218B01F1060C604504DD87
:1016C000C1F57F41FA31014488B25A46A6F8880133
:1016D00012F81C3FC3F34013D2070A9300F115819F
:1016E0004FF48072ABF81C2099F81A0016F03AF803
:1016F000002800F0EA80DBF82420CBF82B20BBF890
:101700002820ABF82F20B8F1FF0F00F0F880BDF8CB
:1017100044201098ABF82920CBF825009DF83720FD
:101720008BF81E200E98BDF83C20CBF81F00ABF8BC
:101730002320E28AABF83220228BABF83420B6F8B3
:101740009221ABF8362096F8D420C2F342028BF8EF
:101750003820304610F0C0FBA082ABF80600D5F868
:101760000480504659460DF0F9FF1C23A28A88F8E0
:1017700004300A9BD8F800A0A8F80620002B40F0FF
:10178000B180DDF828B088F81CB0414650460DF015
:10179000F1FF94F86700B4F85CA0B4F85E80012112
:1017A00000F0070016F05CFCD04408F2D51808EBF6
:1017B00000038246DFF87C815F480721E3FB0801D4
:1017C0004FF09613C4E9033355A3D3E90023FEF782
:1017D00097FC20F07F407060EB680B98226B40F222
:1017E000E24101FB003404F2B3440221A41A0120B7
:1017F000BF1A00220BF0E6FF484610F0FDF8A4EBFC
:101800000A0447A3D3E900238246A4FB0801FEF79C
:1018100077FCCDF80490AB684849009120F07F48F0
:101820000AF10202363BD2B24344012100200DF0FE
:1018300075FA01286BD099F81830DB074AD4304686
:1018400010F04AFB3B4CA7FB044935A3D3E9002326
:10185000834649462046FEF753FCAB68384A079258
:10186000A3F1360A374B069620F07F47A7FB0331DA
:10187000E01A354B05934FF4F8730893736804939B
:101880004FF0070303FB071169EB010100244FF43C
:101890007A7200230394FEF733FC0BF10305EDB2DB
:1018A000CDE90170CDF8008053462A46012120463B
:1018B0000DF074F910F0FD0F2FD101220221104616
:1018C0000BF080FF13B0BDE8F08FCBF82B00ABF826
:1018D0002F0018E7002301220093184611460DF04F
:1018E000E7F9ACE794F8273043F0400384F8273059
:1018F000201D14F0F7FF4FF0010B208543E7002176
:10190000CBF82510ABF8291008E700DEE8E60DF06B
:10191000CDFF81458FD000DE8DE700DECDE700BF33
:101920008D49FD1A0700000083DE1B437FC3C901F8
:10193000404B4C0000CA9A3B8C49FD1A916701004C
:10194000E16601008D49FD1A0967010000000000F1
:101950002DE9F04F8DB0484E484D82460DF016FAF5
:10196000F16807460DF014FA7168F76040A3D3E9F7
:1019700000230446A1FB0501FEF7C2FB20F07F43D4
:101980009C4257D30DF12F010DF12E000DF050FFA9
:10199000DFF8E8803568A5FB085935A3D3E90023B3
:1019A00028464946FEF7ACFBCDF818A004467068FF
:1019B000334B0593A0FB08012DA3D3E900234FF07F
:1019C0000008CDE90788FEF79BFB2E4BCDF80C8075
:1019D00024F07F44A4FB033120F07F40072202FB68
:1019E00004110490E81A69EB01014FF47A720023A4
:1019F000FEF786FB9DF82FB09DF82EA0CDF8008055
:101A0000CDE901403B465A46504603210DF0C6F849
:101A100010F0FD0404D06FF08B000DB0BDE8F08F26
:101A200019481A4A00231BF083FB90B930690DB0A6
:101A3000BDE8F08F30680EA3D3E90023A0FB0501B9
:101A4000FEF75EFB20F07F4138460DF0A1F9074616
:101A500098E79DF82F209DF82E000094234603213F
:101A60000DF026F96FF07300D7E700BFAFF30080E9
:101A70008D49FD1A07000000C815002000CA9A3BD6
:101A8000A57901008D49FD1AA82C0020447B0B008C
:101A900038B50F4D04460DF079F9A9680DF078F9C5
:101AA000696803460B48B3FBF4F4A1FB00011C4436
:101AB00005A3D3E90023FEF723FB20F07F408442F7
:101AC00094BF0020012038BD8D49FD1A0700000099
:101AD000C815002000CA9A3BF0B5C468636883B09B
:101AE0000546002B54D117F067FD002017F088FD44
:101AF0000021084617F076FD00222521082017F066
:101B0000DDFD414B019301A817F0C4FD3F4940F2B0
:101B10005B6017F075FE237AC3F3420262F306138B
:101B20002372204616F0FEFD15F0A4FE637A03F042
:101B3000030348BBFBB927682E68384616F048FAFD
:101B400006446A6806F10901012017F0A1FF18F0A8
:101B500061F820460FF05CFF811C3246C9B238465E
:101B600016F038FA054600BB204616F00DFAD0B93B
:101B7000002003B0F0BD012015F060FB4178821C0D
:101B8000007817F025FFD6E7181E18BF0120F3E7ED
:101B900093F82C309B07A6D01D48214617F0E0FC97
:101BA00017F0D8FDE4E700DEE2E71A4A1A491B48BD
:101BB00040F211431EF0ACFC194B0721A5FB0303B7
:101BC00001FB05310EA3D3E90023FEF799FA15496D
:101BD000024615481EF09CFC002585F31188BFF3D2
:101BE0006F8F0323184602DF1048214617F0B8FC18
:101BF00017F0B0FD6FF08B00BBE700BFAFF30080C4
:101C000000CA9A3B00000000D6BE898E555555008B
:101C100019810100C07502000C76020050750200A7
:101C20008D49FD1A547702001076020015840100D8
:101C30002DE9F043C468A28A4FF6FF739A4283B03D
:101C400000F0FD80064617F021F83389628B208C66
:101C500094F82710A3831A4492B2104480B2431C14
:101C600023840023638301F03F034906E28300F1EC
:101C7000A48094F82810009304F1290004F12203B1
:101C800014F0F2FD0546D4E90C31A26BA08BA363DE
:101C900003FB0022E36B8A4294BF9B185B188B42C4
:101CA00028BF0B46626CE363236C94F867101A44F8
:101CB00094F82C3061F306130021C4E9101294F853
:101CC0007E2084F82C3012F0040200F0898017F096
:101CD00073FC002017F094FC201D17F0DBFC238917
:101CE000A17A40F25B6043EA014117F089FD284682
:101CF00016F080F92146584817F032FCA08917F0F9
:101D0000BBFE94F8662094F86700C2F3C00300217C
:101D100002F0070200F0070017F0D8FD204617F088
:101D20004FF8D4F800803768404616F051F9074460
:101D3000726807F10901002017F0AAFE814617F02A
:101D40003DFF002017F054FFE36B94F8670003F1A8
:101D50002F02636C012100F0070003EB420517F02E
:101D6000EBFC4D44054494F8670000F0070002289E
:101D700034D004280CBF4FF4BC73282301211D4428
:101D800017F0DCFC284417F00BFFA18A03313A4618
:101D9000C9B2404616F01EF90546A8B1B37A13F051
:101DA00002062BD000252D48214617F0D9FB17F04D
:101DB000D1FC284603B0BDE8F083218D04F1220256
:101DC00014F094FD05465EE7204616F0DDF8002885
:101DD0003CD10025284603B0BDE8F0831823CDE7A9
:101DE000D4E91A010BF0B2FC00287FF470AF94F82C
:101DF0007E3043F0040384F87E3068E7184A1949BE
:101E000019484FF4AC731EF083FB18480721A5FB5B
:101E1000000301FB05310EA3D3E90023FEF770F99F
:101E20001349024613481EF073FB86F31188BFF373
:101E30006F8F0323184602DF6FF08B05B3E70E4860
:101E4000214617F08DFB17F085FCC2E700DEC0E7E6
:101E500000CA9A3B00000000E58F0100F5800100F8
:101E60003C7602000C760200507502008D49FD1A86
:101E70006077020010760200198101004B1E594262
:101E80005941014B19707047333900201FB5342474
:101E90000294044C0194BDF81840009421F03CFADF
:101EA00004B010BD68050020F0B58BB01E4C1F4E6D
:101EB0002269A16813681E4F43F4006313600B6826
:101EC0001C4A0B2120469847337833B303AD0023D7
:101ED000ADF80C30AB7023690193A36804A95B686B
:101EE0002046984728B9019B1A68049B53401B055C
:101EF00005D59DF80C3043F001038DF80C3000211E
:101F0000182204A824F0BDFA032304A90020CDE977
:101F10000575ADF81C3009F083FC002140F6CD407A
:101F200022F0D9FFD0E700BF7066020033390020ED
:101F3000BC6C02001100010030B5014689B028B127
:101F4000124809B0BDE830401EF0D5BA104D114816
:101F50001EF0D1FA1EF0D9F81FF005FC0FCD03AC2E
:101F60000FC42B68236001230B49009302220B4B03
:101F700003A805F06DFB014620B109481EF0BBFA2D
:101F800009B030BD07481EF0B6FAF9E71E8302001B
:101F9000906B02003E8302003C6D0200346D020033
:101FA000558302007B83020070B503788AB0044633
:101FB0000E4607AD032B20D8DFE803F002191B1DE6
:101FC00011492846FEF7C0F8059563780493A37875
:101FD0000393E37802932379019363790093A379C0
:101FE0000A4A1E2130461DF085FD0AB070BD084921
:101FF000E7E70849E5E70849E3E7084A0A212846F0
:102000001DF078FDE0E700BF9D830200BF83020062
:10201000A4830200AB830200B583020074A902000E
:1020200030B58BB00C46154620F0B8FA02A9FFF780
:10203000BBFF35B90748224602A91EF05CFA0BB077
:1020400030BD054B05480095224602A91EF053FA03
:10205000F5E700BFE2830200BE87020001840200B0
:1020600010B588B00C4620F099FA6946FFF79CFF3E
:10207000034B0448224669461EF03DFA08B010BDE5
:10208000BE8702002A84020030B589B00C4605469E
:1020900020F084FA6946FFF787FF3CB10A4B0B48F2
:1020A000224669461EF027FA09B030BD0848694645
:1020B0001EF021FA0221284620F015FA0028F3D05C
:1020C00004481EF018FAEFE7BE87020052840200AF
:1020D0007A8402008884020008B5064804F0EEFB0A
:1020E000014620B104481EF006FA002008BDFFF7A3
:1020F000DBFEFAE7391F00001E8302002DE9F84FCE
:102100008A4600AF002974D004680E1F361BF508FC
:1021100026F0070604EB0608B8F802B01BF0010B26
:1021200016D1E94688B06A46334BCDE90531032321
:1021300042F8103F31485B464FF4C25101F0F8FAC3
:10214000CD468BF31188BFF36F8F0423184602DF4F
:10215000294620461DF0DAFF284434F83030C01AF2
:10216000854217D0E94688B06A46254BCDE9053A45
:10217000032342F8103F214800234FF4C25101F0DD
:10218000D7FA0023CD4683F31188BFF36F8F042362
:10219000184602DFB8F8023023F00103A8F8023035
:1021A000294620461DF0B2FF05EB000804EBC803EA
:1021B0005B88DA0708D4414620461DF0F0FF42460E
:1021C000294620461EF030F8A65BAE1B04EBC60382
:1021D0005B88DB0709D4314620461DF0E0FF2A4624
:1021E000314620461EF020F83546294620461DF08F
:1021F00092FFBD46BDE8F88FFC840200B86A020079
:10220000D38402002DE9F04F91B08407009302F0CF
:1022100004030293C2F3C20303F10103DDF868A0D3
:10222000039205460E46059340F09D81041D00284B
:102230004AD101F00706341DC6F10806009B0027AD
:102240005A1E4FF004084FF0FF3301930497B9462C
:10225000BB4643460DB1009921600598002800F364
:10226000D78090480099814203D38F488142C0F0C3
:10227000CF80039911F0020CA4EB050040F0D6804A
:10228000B9F10F0F00F2CF80002D00F0D68009F1D8
:1022900040010DEB010EC0F3870001990EF8200CF0
:1022A0000EF8101CBCF1000F00F0C38060F07F003E
:1022B0000EF8200C013709F10109C5F108010434B9
:1022C00006914FF6DA7E8CE00729B7D86FF01B0035
:1022D00011B0BDE8F08F7A285BD84B280FD847287B
:1022E00057D829282ED8252850D052D8202818BFB2
:1022F00023280CBF4FF0010B4FF0000B71E04C385E
:102300002E2846D8DFE800F06D4545454545454552
:102310004545454548454545454545454556454856
:10232000485656566D486A456D4518481845457FCC
:102330007C48454548457C0000204FF0000B4FF09D
:10234000040835E02A38C0B2012101FA00F010EA91
:102350000E0F46D110F0625C2CD110EA010B40D078
:102360006046013C4444B4FBF8F408FB04F425B196
:10237000A3EB050CA444B445A8D8002870D0059957
:10238000013905915AF8041B009163E7019901395D
:1023900001914FF0000B24E012F8010C6C2834D1AD
:1023A00012F8023C00206C2B8346C8D14FF008087D
:1023B0004346D6E70AF1070A2AF0070A0734FAE883
:1023C00002BC24F0070435B106982044B0423FF621
:1023D0007DAFC4E900BC08344FF0000B4FF0080893
:1023E000434612F8010F002853D0BBF1000F7FF4D1
:1023F00072AF2528F5D1019B013301934FF0010BFA
:102400004FF00408ECE7584697E700208346A8E71A
:10241000039988077FF551AF601B4FF0010CB0F5B1
:10242000007FFFF42DAF6FF0150051E74FF0000C67
:10243000F5E70498013004903DE7BCF1000F01D0AE
:10244000013638E70298023600287FF434AF00984E
:10245000CDE90632FDF780FEDDE9063206442AE7C3
:10246000042B08D10AF1040015B1DAF8001021603C
:1024700004348246B5E70AF1070323F0070303F1AA
:10248000080A1DB1D3E90001C4E90001083408239A
:10249000A7E7631BB3F5806FC5D23DB9A6F1080469
:1024A000E01815E79065020094B30200029A2860D4
:1024B0009B082B709DF81030AAB1EB70AF702FB154
:1024C00008A80022C5F1010C91450ED1C5F1010308
:1024D0000DF120084FF0000A01930DF1300BD145AA
:1024E00012D1601BF4E66B70E8E710F8013B1906A7
:1024F00008D50CEB040EB64503F07F033FF6E6AEBD
:1025000004F8013B0132DFE71FB198F90020002AEF
:1025100017DB029BD3B11AF80B2004F8012B002221
:10252000019B18191044B0423FF6D0AE98F8000055
:1025300004F8010B00990392204623F07BFF039AD5
:1025400014440AF1010A08F10108C8E798F80020CC
:1025500055F822300093029B45F822300098FDF791
:10256000FBFD421CDCE76FF00D00B1E62DE9F04FFA
:1025700097B000AFC7E90A3205468A4649B90378E1
:102580004678807800EB83002844564524D8A0EB99
:10259000050AD7F8803095F80280D7F8804003F01C
:1025A0000103FB61EB787B62B8F1000F0CBF0024E4
:1025B00004F001041BB1D7F880309A0715D4A4B9F0
:1025C000FB6A1BB1BA6A51462846984756463046C0
:1025D0005C37BD46BDE8F08F441C2046FDF7BCFDCE
:1025E000013020440AF1010ACFE7D7F88030C3F365
:1025F000C0033B622B78BB619B003B616B687B61D6
:10260000BB6905EB830BFB6A002B77D15646D84498
:10261000BCB11C461BF8013B55F82300FDF79CFD9F
:10262000D7F88430013043B1D7F88830A34282BF55
:10263000D7F8843023F814000134C3450644E9D1A7
:10264000D846D7F8803013F0050F0CBF4FF0020BBF
:102650004FF0010B4FF000097B6A9945B7D298F80B
:10266000013055F823A0AE4B9A4508F10208C0F09E
:102670004B81AC4B3A6A9A452CBF002301230AB325
:1026800018F8021C7869FB621DF014FFFB6AC8B1E0
:10269000EA468AB06A46A44B05937B69CDE90631C8
:1026A0004FF40073ADF82030A04B42F8103FA04823
:1026B00000234FF4125101F03BF8023ED54609F1D8
:1026C0000109C9E723B1FB6933B9A6EB0B06F6E7AD
:1026D000D7F880309B07F2D55046FDF73DFDD7F87F
:1026E00084304BB1D7F888309C423FBFD7F8842064
:1026F000431C22F8143001340644E0E7002C69D171
:10270000B8F1000F6CD0D7F8803058076BD5C146B0
:1027100007F148004246594623F08CFE0BEB0803B4
:10272000FB6000220233796A8A425ED3D7F88020A8
:1027300095F801B0F969920704EB0B03DBB254BFC3
:102740004FEA59020022002940F0A680D7F88010F5
:1027500011F0040F14BF494600216B70A970EA7094
:102760003969BA6AFB6A28469847061EFFF62FAFFA
:10277000BB692B707B6AEB704946BA6AFB6A85F8C5
:1027800001B085F8028007F148009847B0F10009D0
:10279000C0F2B6803B697A6A786A03EB4201FB6853
:1027A000BA6A414403EB4000AAEB0101FB6A984777
:1027B0000028C0F2A780B14409EB00064FF0000BDF
:1027C00007F1380AA34569D30021BA6AFB6A0846B3
:1027D0009847FCE6444607F138004FF0000999E7B6
:1027E0004446C1469AE7A14698E713F8016CDFF822
:1027F00030C155F8260013F8021C6045C0F08A80ED
:10280000DFF820C16045386A2CBF4FF0000B4FF055
:10281000010B38B17869C7E901321DF04BFED7E9E9
:102820000132F0B9BBF1000F1ED0F96949B1611C4A
:1028300004F1280007F13004041904F8206CCCB22C
:102840000FE0D7F8801049070BD509F1280007F1F0
:10285000300C09F1010100EB0C0909F8106C5FFA6A
:1028600081F9013202335EE7D7F880008007DED4B9
:1028700009F1280C07F1300EF44409F101000CF8BD
:10288000101C07F1580151FA80F009F102095FFAB2
:1028900089F900F8106CE4E700215EE71BF80A30C4
:1028A00087F8373055F82390D7F884302BB3D7F812
:1028B00088309B4521D2D7F8843033F81B80BA6A20
:1028C000FB6A012107F13700984700281ADB06440C
:1028D000B8F1000F06D14846FDF73EFC00F10108B3
:1028E0001FFA88F8BA6AFB6A4146484698470028AA
:1028F00008DB06440BF1010B64E74FF00008DEE74C
:102900004E4664E6064662E63B6A002B3FF4E0AEC4
:102910000023B5E6386A0028A6D04FF0000B79E70F
:102920009065020094B302002985020004000001B2
:10293000586A0200014B1860704700BF98010020E0
:1029400080B505460E46174698461BF05DF90346CE
:1029500002F0A6F8DFF81890044649F80030424625
:1029600030463946A84754F8090002F035F800BF50
:10297000080000002DE9F047058B0446280717469C
:102980000CD501290CBF45F0100545F02005258325
:1029900087F31188BFF36F8FBDE8F087022905F038
:1029A000070540F0948020461EF0B6F8052864D84C
:1029B00001A353F820F000BF91290000CF2A0000A6
:1029C0007B2A00003D2A0000572A0000692A0000E7
:1029D00001F007035A1F012A1FD8002221F0070126
:1029E000062BD4F8008089B2C4E9002209D14346FD
:1029F00003E0628B013262831B68002BF9D141F046
:102A00000201218320461EF087F84FF000090028BC
:102A10006DD041F02001218369E0042B0AD121F01F
:102A2000070189B2218320461EF076F810B141F0EB
:102A3000200121834FF00008C14658E02369D3F8F4
:102A40000090238B23F0070343F0060323834FF00A
:102A5000000846464BE02369D3F80490238B23F00B
:102A6000070343F00403F1E72369D3F80890238BAD
:102A700023F0070343F00503E8E74FF00008C146E1
:102A8000E7E7012243F00803238387F31188BFF3AC
:102A90006F8F002A3BD1B8F1000F4AD1B9F1000F76
:102AA00002D02D492046C847EFF31187202383F336
:102AB0001288BFF36F8F238B23F008039BB223830D
:102AC000D9063FD523F01002228303F0070566697B
:102AD000218B002EBFF67CAF0023D4F8008021F0BC
:102AE0000701C4E9003341F0010121839946238B9A
:102AF00003F0070AAA4502D0A268002AC1D1B8F1A2
:102B0000000F02D1B9F1000FDAD00022BAE7A168B4
:102B10000029C0D00D680029BDD04F683346524609
:102B20002046B8471DB12B6829461D46F3E72B46C2
:102B3000FAE74146334652462046D8F800801EF058
:102B400017F8A8E79A067FF523AF23F02002228327
:102B500003F0070527E700BF9D0B020037B50446C9
:102B60000821C06A124D1EF0F1F900234FF6FF72E2
:102B7000ADF804306368ADF800208DF80620E268F7
:102B800019182B401344181A60606846ADF80210FB
:102B90001EF034F9694620461EF0F7F9211D204643
:102BA0001EF004F963682B40A36003B030BD00BF82
:102BB0000000FFFF2DE9F7430F4681460821C06A58
:102BC000144D1EF0C3F93C68241A80463C6004EAA8
:102BD0000506B4421CD3A0B210B903B0BDE8F0831F
:102BE00008236A46214648461EF0A7F80028F4D17B
:102BF0006946A0B21EF096F938B1BDF80230BDF8B2
:102C000004203C602E4013441E44A4EB0804E0E77B
:102C10000020E2E70000FFFF2DE9F04704468AB0FC
:102C200000F11407384621F0A9FEA06A8368DB682A
:102C30009847E06250B99F4A9F4801211EF0C3F8AF
:102C40006FF0150528460AB0BDE8F087A06A8368D2
:102C5000DB6898470368013B1F2B01D9974AEBE7D4
:102C6000E368B3F5803F08D94FF480320092924870
:102C7000934A01211EF02CFCE2E7A06A216807AA12
:102C800021F08FF808B18F4AD6E7E5682DB1089B8F
:102C9000B5FBF3F203FB12550DB18B4ACCE7238A47
:102CA000012B01D8894AC7E7E36A029593F80580AA
:102CB0004FF0FF334FF0FF3238461AF011F9E06A57
:102CC00008211EF043F9A9460646238A1FFA85FA11
:102CD000534544D8238A4B4500F02D8153450BD1F1
:102CE000029908234246891B20461EF034F818B981
:102CF00002A920461EF05AF802A92046FFF75AFF03
:102D00000546002840F0B280029961604FEA1149FF
:102D10004FEA0949C4F80890A3688B420DD80823EC
:102D200003AA20461EF009F8B8B903AB13F8012B2B
:102D3000904532D101300828F8D1636802A96FF3B9
:102D40000F03204602931EF031F8E36802994246D1
:102D500020461EF000F800283CDA054686E0E168CF
:102D60002B04891B13FA81F1424608232046029165
:102D70001DF0F1FF78B102A920461EF017F809F105
:102D8000010902990823424620461FFA89F91DF0DD
:102D9000E2FF00289ED0013597E7A08803A91EF026
:102DA000C1F8626810B9911B6160B5E7BDF810A069
:102DB000BDF80E10E06AC4F8089051441EF0C6F841
:102DC00048448242A060EED1BAF1000FEBD06FF020
:102DD0001C054BE000F08B8063684FF6FF7906EB33
:102DE0000308E368CDF808801FFA88F29B1B9A421B
:102DF00023D3374A304803211DF0E5FF61682046A0
:102E00001DF0E3FF014680BB6368324AE06813406F
:102E10000344A3EB460363601340A36020461EF007
:102E200055F9002899D1E368A288A3EB46039A429A
:102E30001CD120461EF0C6F88FE7082305AA41469C
:102E400020461DF07AFF002887D105A91FFA88F0D7
:102E50001EF068F838B1BDF814304B4503D1BDF809
:102E60001830002B6AD0B044BBE70D4638461AF044
:102E7000A9F8002D7FF4E6AE0123A374E268238A4B
:102E80000D4800920321144A1EF022FB63689AB297
:102E900000920948114A1B0C03211EF019FBA3687C
:102EA0009AB2009204480E4A1B0C03211EF010FB3C
:102EB000C8E600BFFC850200786A02001E86020098
:102EC0003B860200648602007C8602009086020037
:102ED000028702000000FFFFB3860200CA860200DC
:102EE000DC860200E26AA36812681344A360D4E996
:102EF00001318B4208D95B1A424620461DF02BFF58
:102F00000028FFF62AAFEDD16168E36801EB4602C5
:102F10009A4288D1124BA06801EA0302904282D003
:102F200020461DF052FF00287FF417AF62680C4B5B
:102F30001A40A26077E76FF02C0597E7094A0A4824
:102F400003211DF040FF636802A96FF30F032046C1
:102F500002931DF02BFF029920461DF036FF60E71B
:102F60000000FFFFED860200786A02002DE9F04FB5
:102F70001E46837C95B004468946904653B96B4AF9
:102F80006B4801211DF01FFF6FF00C05284615B09E
:102F9000BDE8F08FC26A082110461DF0D7FFB1B21C
:102FA000019010461DF0D2FFE368019AA3EB820363
:102FB00083420746C0F0B6801EB1B8F1000F00F0A2
:102FC000B180D4F804A0CDF810A005AA04A9204629
:102FD0001EF032F805460028D8D1BDF814304B4514
:102FE00007D0DDF810A063685345EED1002E39D12B
:102FF000CCE705A91FFA8AF01DF094FF0028F0D055
:10300000BDF8183066B3B3422CD14FEA1A43BDF86D
:1030100016A0CDF800801B049A44E36A1B685B424B
:1030200003F020030293B346029B5B4528BF5B4637
:103030000CAA5146204603931DF07FFE00284DD177
:10304000039B00981A460CA923F023FA50B9039B5E
:10305000009ABBEB030B1A449A440092E4D195E723
:10306000002B93D0002F3CD1BA4604F1140B4FF043
:10307000FF324FF0FF33584619F032FF238A9D424A
:103080004DD0D4E901320AEB02018B422ED39BB220
:1030900063B3FF23ADF81E20002118220CA88DF881
:1030A0002230ADF81C90ADF8206023F0EAF90CA9AD
:1030B0002046CDE90E861DF053FF074648B907A804
:1030C0001DF09CFE07A920461DF05FFF074600B9D2
:1030D0003746584619F076FF3D4657E7C2DC0546AD
:1030E00054E7019B1F441FFA87FABEE72046FFF70B
:1030F00035FD3DB9ADF82490CDF82880ADF82C60B1
:103100008DF82E5009A920461DF0E0FF0746002843
:10311000DFD19DF82E300135002BAFD0D8E76FF00E
:103120001B07D6E76FF0150530E700BFE885020002
:10313000786A02002DE9FF471E46837CBDF8309077
:1031400004460F4690464BB92848294A01211DF0F4
:103150003AFE6FF00C0004B0BDE8F087C06A0821A9
:103160001DF0F4FEE368A3EB4003B3423AD3656875
:1031700001954FF0000A02AA01A920461DF05CFF4C
:103180000028E8D1BDF80830BB4206D102A9A8B298
:103190001DF0C8FE50441FFA80FA019B62689A42F3
:1031A00019D0CA4515D9BDF80C30C3B1CA4516D3DC
:1031B000BDF80A10B3426FF30F0528BF33464246ED
:1031C000294420461DF0B9FD0028C4D1BDF80C00EB
:1031D000C1E71D46CFE7BDF80830BB42E3D06FF032
:1031E0000100B8E76FF01500B5E700BF786A02008C
:1031F000E88502002DE9F047DFF8548004460746D1
:103200004FF0010994FAA4F5B5FA85F509FA05F32A
:103210002E0108EB05156FEA030A24EA03042B7B51
:1032200063B158F806301B696BB9464404227368D1
:103230002846196807EA0A071EF0C7F8002CE1D1F2
:103240003846BDE8F087284698470028F6D1ECE7D5
:10325000E86A020010B50F490F4888B0002221F03B
:1032600020FF00220023CDE9062300240E23CDE910
:103270000334CDE90144094B094900944FF44072ED
:1032800008481AF049FA0849064821F06EFD204620
:1032900008B010BDAD320000180C0020D935000078
:1032A000C03A00209007002030870200014819F042
:1032B0000BBF00BF640600202DE9F047804621487F
:1032C0000F461EF062F80646002833D00025284637
:1032D000BDE8F087237B83B12368DB680BB1204610
:1032E0009847636883F8069023681B69D3B96368BD
:1032F0000422196820461EF068F80136103454453F
:10330000E8D3B8F1000FE2D0002DDFD02846FFF758
:1033100071FF0546002FF7D000214FF4A47021F073
:10332000DAFDF1E7204698470028E0D009FA06F3D5
:103330001D43E2E7044CDFF814A005464FF00109F5
:10334000DDE700BF60180020E86A0200F86A0200AA
:10335000014B53F820007047606D020008B503462A
:1033600008462BB1044A136000F042FC002008BD5F
:103370006FF01500FBE700BF9C01002010B5044C66
:10338000237813B9034819F09FFE0123237010BD61
:10339000343900206406002010B504460B481DF0A7
:1033A000F4FF5CB1BFF35B8F094B53E8001F013999
:1033B00043E80012002AF8D1BFF35B8F054821F0E3
:1033C0007CFE0548BDE8104019F07EBE581800206C
:1033D0005C180020180C002064060020064BBFF388
:1033E0005B8F002253E8000F43E800210029F9D148
:1033F000BFF35B8F704700BF5818002070B5FFF710
:10340000EDFF084C084E0546B44200D370BD63681A
:103410005B792BB123685B6813B129462046984736
:103420001034F1E7E86A0200F86A020010B5044CB3
:10343000044920461DF079F9034B1C6010BD00BF04
:10344000C00500204C6D0200501800200D4A0E48A7
:10345000002310B513700D4A13600D4A4FF400415C
:103460001360FFF77BFFFFF7E1FF0A4B0A4918469D
:103470008B4200D310BD1A1A5C68121101322271FE
:103480001033F5E735390020871302005818002063
:103490005C180020E86A0200F86A02000146002277
:1034A000014800231DF062B9C005002001481DF04D
:1034B000F9B900BFC0050020024B014618681DF095
:1034C0004CBA00BF5018002001481DF081BA00BF5F
:1034D000C005002070B5294B187800284DD0FFF7A3
:1034E000E5FF0546002845D1254B264C1B68002BDF
:1034F00019DD21F08EFD4FF47A72A0FB020302FB6E
:103500000131C30BD4E9002043EA41439B1A4FEA3F
:10351000D13140F2E93261EB0001934271F10001D7
:1035200001D3FFF76BFFD4E9003213F57A7342F150
:103530000002C4E90032BDE87040FFF7C5BF636810
:103540005B7923B1236829461B68204698471034CD
:10355000B442F4D32846FFF7AFFFBFF35B8F0A4BAB
:1035600053E8001F013943E80012002AF8D1BFF3E5
:103570005B8FB9E7054C064EEAE770BD3439002091
:1035800058180020100C00205C180020E86A020087
:10359000F86A020070B50D4D297861B90120FFF776
:1035A0008BFE0B4C0B4EB44206D3FFF793FF002863
:1035B000FBD101232B7070BD63685B791BB123685D
:1035C00020469B6898471034EDE700BF353900204E
:1035D000E86A0200F86A020000212DE9F843084673
:1035E000FFF76AFE044648B340F267684FF00009EF
:1035F00001F056FA1A4B1B4A1B58136033B11A4B91
:103600001B68092B02DD194819F05EFD184F0025D3
:1036100044B12046FFF7EEFD044618B94FF0FF38DD
:103620004FF0FF39FFF756FF064628B9B5B90F48E6
:1036300042464B4619F07CFD3546E9E74FF0FF382E
:103640004FF0FF39D4E72B689B691BB1002211466C
:10365000284698471035BD42F5D3E8E7054DFAE70F
:1036600008000000541800205C18002064060020A8
:10367000F86A0200E86A020013B518481DF085FEDA
:10368000174B1B7873B1EFF31184202383F3128857
:10369000BFF36F8FFFF71EFF84F31188BFF36F8FA7
:1036A00002B010BD0F4B1B68002BF9D050B900229F
:1036B0000023CDE900230C484FF4004200231AF008
:1036C0008FFDEDE70928EBD1074821F0F6FC07480C
:1036D00002B0BDE8104019F0F7BC00BF5C18002034
:1036E0003539002054180020180C002064060020F2
:1036F00010B5064B1B68044698472146A060044855
:103700001DF0B1F8BDE81040FFF7B6BF9C010020E6
:10371000C0050020044A054B9B1AB1EBD30F34BF00
:1037200052F8310000207047A8690200E86A0200E0
:103730002DE9F04F8FB004AFC1F34A26B8600D46B3
:1037400090467B600C0D002E61D04FF000090A23DB
:103750004FF0040B07F1140AFE60C7E90799C7F898
:1037600024900093CDF808B0CDF804A007F11C0315
:10377000F9684A464046FEF7F9FEB0F5006F034689
:103780001CD36C468AB0D8F8041004AB2448C3E9B3
:10379000050140F2FF71D9611A464FF40071198496
:1037A000204B42F8103F20484B464FF41251FFF790
:1037B000BFFFA5462C37BD46BDE8F08FC0F30A0613
:1037C00004F11700184420F0070080083B60FFF761
:1037D00065FE66F35325044680B13B68134A00F149
:1037E0001001C7E90839F961CDE901AB0A2300935B
:1037F000F96807F11C034046FEF7B8FE66F353254F
:103800007B68B9682A4620461DF0FFFDD2E704F127
:10381000170020F007008008FFF740FE0446EDE7A0
:103820004587020004000001806A0200DD130200E7
:103830002DE9F04F87B0DDE9127ADDE9106B05461E
:10384000884614469946BFB11021CDF800A03B46EA
:103850005A460020CDF814A0FEF7D4FCB0F5006F56
:1038600001460BD3194A1A4840F2FF73022107B0F0
:10387000BDE8F04F1DF022BE3946384604F007037C
:1038800005F00704E40044EA831444EA402444EACF
:10389000065406F11700084420F007008008039141
:1038A000FFF7FCFD054640B13FB10399CDF800A0FC
:1038B0003B465A461030FEF7A5FC4B462246414691
:1038C000284607B0BDE8F04F1DF09FBD8487020079
:1038D000806A0200406820B1034BC01A40F3CF0059
:1038E00070474FF0FF307047A86902000EB403B56F
:1038F00003AB014653F8042B0448019301F056FA38
:1039000002B05DF804EB03B0704700BF1F15020062
:10391000CA0605D48B064CBF02490349FFF7E6BF30
:10392000704700BFBD870200BC8702002DE9F04F41
:1039300089B09846159B0693DDE916A39DF8509033
:10394000189F059204460D460493B9F1000F00F04C
:10395000B08007F4807307931DF035FD07F0020B6C
:103960000246002874D078492046FFF7BFFF06467C
:10397000BBF1000F08D017F0440F6BD173492A46F2
:103980002046FFF7B3FF064407F0010353B1704B25
:10399000704953F82920704B2046002A08BF1A4668
:1039A000FFF7A4FF07F48073002B07F0080318BF8C
:1039B0004FF00008002B79D0684B694953F8292053
:1039C0002046FFF793FF0546059B2BB165491A4634
:1039D0002046FFF78BFF0544B8F1000F05D0624980
:1039E00042462046FFF782FF054460483544069B67
:1039F0001BB15F4922461CF02CFD049B002B00F0FC
:103A00008E80DDF810803946B8F1100F204628BFAF
:103A10004FF01008FFF77CFF0026B54250DC00266F
:103A200033461AF8032053492046FFF75FFF01365B
:103A3000102E4BD0710703D14F492046FFF756FF98
:103A400046453346EDD34D492046FFF74FFFEEE79D
:103A500006468DE74A4B1868002894D0494B4FF42E
:103A60007A7B1B68B5FBF3F54FF46163B5FBF0F1AE
:103A700000FB11550BFB05F54FF03C0CB1FBF3F2CD
:103A800003FB1211B5FBF0FEB1FBFCF300FB1E556E
:103A90000CFB13110BFB05F50091B5FBF0F53A4952
:103AA000CDE901E52046FFF721FF6CE707F00805A7
:103AB0008AE7B8F1010F0CBF2C4834484D4696E711
:103AC0002D492046FFF712FF0136A6E73049204670
:103AD0000026FFF70BFF33461AF803202D49A2F109
:103AE00020035F2B28BF2E222046FFF7FFFE013662
:103AF000102E0DD0720703D11F492046FFF7F6FEA6
:103B0000B0453346E8D81C492046FFF7EFFEEEE704
:103B1000049BB3EB0803C24404937FF472AFB9F182
:103B2000000F0AD0FB0704D50B4A0A492046FFF7CD
:103B3000DDFE39462046FFF7EBFE204609B0BDE822
:103B4000F04F1DF0DFBC00BFC4870200C887020031
:103B5000706D02000D930200BF870200846D0200A9
:103B6000ED870200F3870200F78702001F150200AD
:103B7000AD4D0000FC8702000488020002880200AC
:103B80006818002064180020D18702005515020033
:103B9000068802000888020073B542F20F738B4258
:103BA00028BF0B4605680F4A0446052168461BF0EE
:103BB000A1FF63680C495B6806460B2228461DF08E
:103BC00093FC63683246694628465B681DF08CFCAE
:103BD000636806495B681B2228461DF085FC02B01D
:103BE00070BD00BF83AC020020B0020004B0020030
:103BF000074A00210123904206D8064A01B9012351
:103C00001360054B1860704740085B000121F2E724
:103C100040420F006418002068180020F8B5074FD4
:103C20000D4604464618B44201D12846F8BD14F8A2
:103C3000011BBB6801485B689847F4E7A86602006F
:103C4000014B036000207047CC6D020070B5104B33
:103C50001C680D46B4B10F4B196800238B4202DB80
:103C60006FF0010070BD224612F8106B864202D040
:103C700001331446F2E7E06820F0DDFD28B12C6046
:103C80000020EFE76FF00C00ECE76FF01200E9E7BF
:103C9000A8010020CC6D020010B588B043680293E3
:103CA0008368C068CDE903320A680023CDE90623A2
:103CB0000C4601AA0449059320F077F8079808B943
:103CC000059B236008B010BD511602001FB50724E4
:103CD0000294044C0194BDF8184000941FF01CFBA2
:103CE00004B010BDA705002010B5DFF824C086B0D1
:103CF0004FF42814CDE904C40824029404AC0194C0
:103D0000BDF8204000941FF007FB06B010BD00BFB7
:103D10001800280010B5084C86B024788DF817409C
:103D2000012402940DF117040194BDF82040009481
:103D30001FF0F2FA06B010BDAE05002080B50D4AA6
:103D40000D4B00AF88B0012908BF13466A460B49E6
:103D5000CDE905134FF40073ADF81C30084B42F861
:103D6000103F084800234FF4E651FFF7E1FCBD4641
:103D700080BD00BF628802006A880200738802006A
:103D800003000001A86902002DE9F0410C4B1C68FA
:103D900005460E4617467CB100F06AF96368204676
:103DA000D3F8108032463B462946C047044600F00F
:103DB00069F92046BDE8F0816FF00104F9E700BF22
:103DC0009018002000230360044B5A6812B9C3E91D
:103DD0000000704710605860704700BF94180020C2
:103DE000014B1860704700BF9018002030B585B0B7
:103DF0000023CDE902330546019000F039F9094B63
:103E00001C6844B9284600F0D5F8044600F03AF999
:103E1000204605B030BD636820461B6801A998475D
:103E20002468EEE7941800201FB5CDE90101039244
:103E300000F01EF9074B1C6824B900F023F9204656
:103E400004B010BD636820461B6801A99847246828
:103E5000F2E700BF94180020024B0022C3E90022C1
:103E6000704700BF94180020024B0022C3E90022D3
:103E7000FFF7F2BF9C1800202DE9F74307460C46D8
:103E800009B100230B601F4DDFF87C9000264D45E3
:103E90000FD31E4B1D6885B355F8188C01AA4146F7
:103EA0003846183D1DF066FC10B3D6B914BB2E463B
:103EB0001EE0D5F8008001AA414638461DF05AFCA4
:103EC00050B116B954B92E4606E03168002240467A
:103ED0001DF050FC0028F5D11835D8E7019B236070
:103EE000F1E73168002240461DF044FC0028DDD196
:103EF000AD69D0E7019B2360D9E7304603B0BDE848
:103F0000F08300BFF86A0200886B02009C18002052
:103F10002DE9F04784B002AF0446D7F828907860C6
:103F20000D4616469846B9F1000F07D0D9F8001093
:103F300031BBD9F804A0BAF1000F28D1391D2046B1
:103F4000FFF79AFF08B3D0F80C90786843463246E2
:103F50002946C847C8B16D468AB002AA124BD06143
:103F6000C2E905344FF400731384104B42F8103F3C
:103F70000F4800234FF41151FFF7DAFBAD4604E080
:103F80003A1D1DF0F7FB0028D3D1002007E0D9F837
:103F9000083000937868434632462946D0470837B0
:103FA000BD46BDE8F08700BF8C8802000400000118
:103FB000C86A02002DE9F047DFF8A890DFF8A8A052
:103FC00080464FF000470026284C3D464C450DD317
:103FD000DAF80040002C40D0183CB8F1000F24D192
:103FE000226952BBA469F5E72F46EDE7B8F1000F4F
:103FF00003D122694AB91834E8E720680022414613
:104000001DF0B8FB0028F4D1F5E76368BB4206DD7C
:10401000AF4202D0AB42A8BF2B461D46EBE7EAD128
:104020009047002E08BF0646E5E72068002241467B
:104030001DF0A0FB0028D3D1D4E76368BB4206DDA6
:10404000AF4202D0AB42A8BF2B461D46CAE7C9D13A
:104050009047002E08BF0646C4E7AF42C4D13046A1
:10406000BDE8F087886B02009C180020F86A020007
:1040700003484FF0FF324FF0FF3318F031BF00BF5D
:1040800050060020014818F09DBF00BF50060020D8
:1040900038B5094DFFF7ECFF2B785BB9FFF7E4FE6D
:1040A00000F068F8044608B901232B70FFF7EAFF17
:1040B000204638BD0024F9E7373900202DE9F043C8
:1040C000048F013499B006460F46A4B200F10808E7
:1040D000651EADB2B5F5004F47D04A2305AA294663
:1040E00040461DF037F904F57F543F34A4B28146B1
:1040F000214601230DF10B0240461DF02BF9B9F1C9
:10410000000F014610DC002810DC338FAB4209D1D0
:1041100032466B1E22F8383F4FF4004102234046DE
:10412000FEF724FF2C46D3E7002808DC294640464A
:104130001DF00CF9214640461DF008F9E5E709F1AC
:1041400060030DEB0309002309F84C3C084A009773
:1041500003AB05A8CDF80C80ADF81040FFF7D8FEF2
:104160000028DFD019B0BDE8F0830020FAE700BFD7
:10417000E51702007FB50123694603200193FFF78D
:1041800065FD044660BB02AA01A903201DF082FA66
:10419000044610B110F10C0F22D10399B1F5803F04
:1041A00023D2009A002394681846084484421AD304
:1041B0000133082BF9D10E4D69612B835368AB6035
:1041C0002846D368EB631DF0A3FB044640B9094EB3
:1041D0006E602846FFF7F6FD28466E60FFF700FE8A
:1041E000204604B070BD9BB2E5E76FF02004F7E70E
:1041F000A41800208C6F020008B50348034A002170
:10420000121A1DF0BAFB08BD90070020983A002052
:104210000748084A084908B5121A1DF0B0FB0748BC
:10422000074A0849BDE80840121A1DF0A8BB00BFA4
:10423000000000209007002094B30200000000203E
:104240000000002094B302002DE9F047064600AFBD
:104250000C46002936D0E9468AB0D1E90012A3689D
:104260006D462148E8464FF0050ACDE90501CDE944
:10427000072348F810AF1D48424600234FF4215150
:10428000FFF756FACD46D4E903126369AD461848E4
:10429000C5F810A0C5E90501C5E9072313480023A7
:1042A00042464FF42151FFF743FACD46E369114AE4
:1042B0000E4801211DF002F9A3690F4A0B480121A4
:1042C0001DF0FCF8012E07D1EFF305830B4A0748D8
:1042D000103B31461DF0F2F82146304618F01EFC26
:1042E000BD46BDE8F08700BFB1880200B06A020099
:1042F000E08802000F8902001E8902004C8902003A
:1043000030BFFFF7FDBF00BF2DE9F0410B4EDFF8D6
:10431000308006EB0807CC1B05463246094920468B
:1043200022F088F8A01942460021083C22F0A9F8A2
:104330002C6707F10800BDE8F08100BF0000000015
:1043400008000000886B020010B5204C204921486D
:104350001DF022FBA36A990136D51E481E491DF0A7
:104360001BFB1E20A36ADA0104D51A481B491DF065
:1043700013FB1F20154CA36A1B0304D515481849CD
:104380001DF00AFB2120A36A590304D511481549E1
:104390001DF002FB22200D4CA36A9A0304D50D48A0
:1043A00011491DF0F9FA2320A36ADB0304D509485B
:1043B0000E491DF0F1FA2420044A936A6FEA034380
:1043C0006FEA1343936210BD1D20CBE700ED00E0C0
:1043D0005F890200B06A0200778902008A890200C0
:1043E000A4890200C2890200E7890200018A020052
:1043F00070B506460D46284C284929481DF0CCFAD0
:10440000A36AD9043CD5264826491DF0C5FA1720D1
:10441000A36A1A0504D5224823491DF0BDFA1820C5
:104420001D4CA36A9B0512D51D4820491DF0B4FA06
:10443000A36BA26A100409D51D4A194801211DF079
:104440003DF81EB1A36A23F40043A3621920124C65
:10445000A36A590504D5124816491DF09DFA1A2081
:10446000A36ADA050ED50E4813491DF095FA1B20F4
:10447000094A936A43F47F43936200232B7070BD13
:104480001620C5E7A36A9B04F2D505480B491DF029
:1044900083FA1C20ECE700BF00ED00E02C8A02004C
:1044A000B06A0200428A0200538A0200668A020051
:1044B0007F8A0200948A0200AF8A0200C78A020043
:1044C0002DE9F843804689461746354D354936482B
:1044D0001DF062FAAB6ADE0627D5344932481DF07A
:1044E0005BFA1124AB6A1D0704D531492E481DF033
:1044F00053FA12242A4DAB6A980718D52D492A4839
:104500001DF04AFA6E6BAB6A190646D52A4A264850
:10451000334601211CF0D2FFB9F1000F03D0AB6A82
:1045200023F08003AB62132403E01024DAE76FF07A
:1045300015061B4DAB6ADA0704D520491A481DF051
:104540002BFA1424AB6A9B0604D51D4916481DF0AE
:1045500023FA1524124B9A6AD50602D49A6A900758
:104560000AD55B68190507D54146304600F0EAF9DF
:1045700010B180F309880224094B9A6A920642BF5F
:104580005A6A22F400525A629A6A42F0FF029A6210
:1045900000233B702046BDE8F8836FF01506C2E7A4
:1045A00000ED00E0F68A0200B06A02000C8B020007
:1045B000538A02003F8B0200578B02006D8B020072
:1045C000C78A02002DE9F041684B8AB0D3F8048015
:1045D00000AF0446C8F30806002585F31188BFF331
:1045E0006F8F02F07F43B3F17F4F07D102F00C03CE
:1045F000082B12D15E495F481DF0CEF900252C46EC
:104600000023FB71F31E092B00F28F80DFE803F01B
:104610000A8588818D8D8D8D8D8B10074CBF0C4642
:104620000125EDE754495348504E1DF0B5F90023DC
:10463000FB71F36A9A0705D550494E481DF0ACF955
:1046400000232DE0F36A002B01DA4D49F5E7F36A08
:104650005B00F5D54B4947481DF09EF97369A26987
:1046600043F480737361BFF34F8FBFF36F8F32F8E2
:10467000023C726922F480727261BFF34F8FBFF304
:104680006F8F03F47F42B2F55F4F2BD1DBB2022B69
:1046900028D123683C4A374801211CF00FFF2368CA
:1046A000FA79DAB907F1080604F1200C206861688C
:1046B000324603C2083464451646F7D17A6A002DA3
:1046C00050D0C2F3080121B96FEA52226FEA4222A8
:1046D0007A6207F108011846FFF7B6FD2837BD4694
:1046E000BDE8F081214B9A6AD2B22AB1FA1D0121AC
:1046F0002046FFF7E5FE0EE09A6A12F47F4F04D0E1
:10470000F91D0120FFF774FE05E09B6AB3F5803FB9
:1047100096D3FFF719FE0346C2E7FA1D0021E7E72B
:10472000F91D0020EEE7194987E7194A194B18F4DB
:10473000F87FE8468AB008BF13466A461649CDE9B5
:1047400005134FF40073ADF82030103E134B07965D
:1047500042F8103F074800234FF41151FEF7E8FFDD
:10476000C5466DE76FF30802B2E700BF00ED00E059
:10477000BA8B0200B06A0200E58B0200FC8B0200DB
:104780001D8C02002B8C02004A8C0200668C0200F9
:104790008C8B0200A18B02008A8C020004000001B5
:1047A000044B5A6942F010025A615A6922F0080219
:1047B0005A61704700ED00E0EFF30880EFF30981E4
:1047C00001B57246FFF7FEFE01BD00BF0B4880F346
:1047D000088817F041FA202080F3118808484FF428
:1047E0000461401880F30988EFF314800221084324
:1047F00080F31488BFF36F8F00F06CF880600020A6
:10480000C05200201EF0040F0CBFEFF30880EFF33E
:104810000980816911F8021C0229FFD001B5724696
:104820001DF0AFF801BD00BF40B2002807DB044A0D
:104830004109012300F01F00834042F821307047F6
:1048400000E100E040B200280CDB4309064900F01B
:104850001F0020330122824041F82320BFF34F8FF5
:10486000BFF36F8F704700BF00E100E0054B4209C6
:1048700000F01F0053F82220012303FA00F010403B
:10488000704700BF00E100E040B20028A8BF00F17F
:10489000604001F10101B8BF064B4FEA4111ACBFC6
:1048A00000F5614000F00F00C9B2B4BF195480F8A0
:1048B0000013704714ED00E0044B054A23F07F031A
:1048C0009360BFF34F8FBFF36F8F704700000000FE
:1048D00000ED00E008B5FFF7EFFF0B4AD2F8883093
:1048E00023F47003C2F88830EFF3148323F0040339
:1048F00083F31488BFF36F8FFFF77EFCFFF788FC0C
:1049000000F0B0F818F030FA00ED00E042F8203C7A
:10491000009B42F81C3C0A49019B42F8183C029B50
:1049200042F8143C21F001014FF0807342F8043C3E
:1049300042F8081C0023203A02654367704700BF15
:1049400041290000094A0346906870B113F1160F1F
:10495000006E05D0A0F14002934205D3834203D2FA
:10496000814228BF0020704700207047403200205D
:1049700008B515460B4A0C4B9060026F1A600E4644
:1049800000F0A0F82C4686F309880020034B9847D6
:104990002046002100220023014C2047AF190200CD
:1049A0004129000040320020E4180020014B102271
:1049B0001A61704700ED00E0054B5A699B689A4206
:1049C0001FBF044A536843F080535360704700BFD1
:1049D0004032002000ED00E0084B9B6883420BD181
:1049E000EFF3058343B1064B5A6842F080525A6098
:1049F0005A6A22F400425A6219F00CB9403200207F
:104A000000ED00E014498A684FF030001044EFF3E5
:104A1000098C80E8F01F202080F31288BFF36F8F8D
:104A20000E4F4FF000664A698A603E60106F0C4C72
:104A30002060506F0023536780F3118804B510463F
:104A400000F040F8BDE8044002F1300090E8F01FAB
:104A50008CF30988704700004032002004ED00E02C
:104A6000E4180020044800232021C2180133302B11
:104A700082F80013F9D1704700E100E008B5EFF3C8
:104A80000583064A103B02EBC30152F83300496824
:104A90008847BDE80840FFF78FBF00BF18670200D6
:104AA0000148006870470000E4180020024B034AE8
:104AB0000348012100F08AB8000004200000002013
:104AC000A86F0200036E054A403B1360044B40216F
:104AD000C2E901131046012100F082B8E818002055
:104AE00000000B1508B503461048D0F89020C2F31B
:104AF0000722013A934207D90D480E4A01211CF0C2
:104B0000DDFC6FF0150008BDC0F898300A6822F08F
:104B10001F021A4342F01002C0F89C208A6842F03B
:104B20000102C0F8A0201846EDE700BF00ED00E04C
:104B3000986A0200A18C0200F0B50E4685B01F46AF
:104B400004460025B5420DDA606810B397B1431EE4
:104B500018420AD0104A11482B4601211CF0AEFC25
:104B60006FF01502104605B0F0BD1F28F2D921687C
:104B70000B42EFD1236801931CF03CFFA36801A90D
:104B80000343D0B20393FFF7ADFF10F1160FE7D048
:104B9000421C01350C34D5E7C78C0200986A02002C
:104BA000044B0522C3F89420BFF34F8FBFF36F8FE0
:104BB000704700BF00ED00E0BFF35F8F024B0022A3
:104BC000C3F89420704700BF00ED00E010B5034C1F
:104BD00001232278FFF7B0FF207010BD3839002084
:104BE00008B50B4A00231278FFF7A6FF10F1160F45
:104BF00007D0084A0021D2F89030C3F30723984227
:104C000000DB08BDC2F89800C2F8A0100130F2E73E
:104C10003839002000ED00E02DE9F0435D485E49A1
:104C2000D0F890300C68C3F307239C4285B000F2A3
:104C3000AE80FFF7C1FF49680022944201F10C01E8
:104C40001AD1564F564D3C706846FEF7F9FF554C49
:104C5000554E81464FF00008C14520D13B784D4963
:104C60000020D1F89020C2F307229342C0F289803D
:104C7000FFF796FF002050E0C0F8982051F80C3C58
:104C800023F01F03134343F01003C0F89C3051F886
:104C9000043C43F00103C0F8A0300132CDE7009896
:104CA00000EB08114FEA081CCB682340B3F5000F56
:104CB00049D00BD8B3F5001F32D0B3F5800F37D0F1
:104CC000B3F5801F14D008F10108C5E7B3F1007FE8
:104CD00042D0B3F1805F48D0B3F1807FF3D150F878
:104CE0000C3088684A681CF085FE40F0887009E046
:104CF00050F80C3088684A681CF07CFE40F0885000
:104D000040F43020039001A93878CDE90123FFF762
:104D1000E9FE002831DA6FF0150005B0BDE8F08338
:104D200050F80C3088684A681CF064FE3043E9E7AC
:104D300050F80C3088684A681CF05CFE40F0007047
:104D400040F40030DEE750F80C3088684A681CF008
:104D500051FE40F08270D5E750F80C3088684A6800
:104D60001CF048FE40F48020CCE750F80C308868F6
:104D70004A681CF03FFE2843C4E73B7801333B7090
:104D8000A1E7C1F89830C1F8A000013369E74FF0FE
:104D9000FF30C2E700ED00E0B46F020038390020B8
:104DA000000002110000F0FF00000811F0B587B00C
:104DB00007460E4614460021102268461D4621F083
:104DC00060FB02238DF802302A46054B01932146F1
:104DD0006846CDE904761AF01DFF07B0F0BD00BFAC
:104DE000151A020008B5024B1B689847002008BD41
:104DF000F4180020034B044A1860937843F0020330
:104E000093707047F4180020FC01002008B5064993
:104E1000064821F00701C1F1005202F580221BF083
:104E2000D7FA002008BD00BFD3740020F818002076
:104E300003484FF0FF324FF0FF3318F051B800BF76
:104E40000C020020014818F0BDB800BF0C02002081
:104E500038B50546FFF7ECFF08482A4608211BF045
:104E600046FA044628B925B1FFF71AFE044B0C2276
:104E70001A50FFF7E7FF204638BD00BFF8180020A2
:104E80000C00000010B50446FFF7D2FF214603488E
:104E9000FDF734F9BDE81040FFF7D4BFF818002043
:104EA00070B5A0FB015434B92846FFF7D1FF064680
:104EB00040B9304670BDFFF7F3FD054B0C221A5088
:104EC0000026F6E72A46214621F0DBFAF1E700BF8B
:104ED0000C00000070B54169867A0B4D044659B14B
:104EE000437ADB0706D4242303FB0653DB691B68E4
:104EF0009B689847002363612420214600FB0650ED
:104F0000BDE870401FF0FABD94060020024B242239
:104F100002FB0030704700BF94060020827A064BE7
:104F2000242101FB02331A6A1B7D1B33801A23F0F4
:104F30000303B0FBF3F070479406002038B5074B2D
:104F4000827A242404FB0233DB69D3E901240C6058
:104F50001568FFF7E3FF04FB005038BD94060020FE
:104F60002DE9F04385B005466846039190461C46FE
:104F700020F051F8DDE90067EFF31189202383F376
:104F80001288BFF36F8F6B8A002B41D02A8A9A4216
:104F900025D900220023284618F064F80446F0B111
:104FA00089F31188BFF36F8F039B002B41D03246EA
:104FB0003B46684620F054F8A27A264B242101FB98
:104FC00002332046DB691B6803A91D68DDE9002365
:104FD000A847606170BB2046FFF77CFF24E0698A28
:104FE0004B1E6B8289F31188BFF36F8F2B7D2A8A4A
:104FF0002C6A1B3323F00303521A02FB0344154BA4
:10500000154AEB1A9B105343A3722B7DE372CBE737
:1050100089F31188BFF36F8F23464246284618F064
:1050200021F804460028BFD10024204605B0BDE881
:10503000F0836361012300252381039B6382E27A6D
:105040006560294604F1180021F01BFA6369258286
:10505000E360EAE794060020398EE33870B50D4C22
:10506000242500B970BD037A4668002BFAD0013BB5
:10507000DBB20372002BF5D1C3604360837A05FB7A
:1050800003439B6913B198473046EAE7FFF722FFD5
:10509000FAE700BF940600200C4B0122C3F840251C
:1050A0004FF080434FF08051C3F87825D1F830019C
:1050B000082805D1D1F83411022908BFC3F83826D1
:1050C0000122C3F880250020704700BF00E00140A6
:1050D00048B1054B054A1B68B3FBF2F35843044B38
:1050E00043F00103184770474C05002040420F0071
:1050F000506C020008B5054A054B136010463C236E
:10510000536016F07FFE002008BD00BF0419002088
:105110003FC00F000E4B402970B528BF40210D4CF9
:1051200046181D46B04203F1020304D1002305F8DE
:105130001130074870BD02781209A25C03F8022CF6
:1051400010F8012B02F00F02A25C03F8012CE9E732
:105150005739002046B0020030B503788BB00446C2
:1051600007AD032B21D8DFE803F0021A1C1E1249F9
:105170002846FAF7E9FF059563780493A37803932B
:10518000E37802932379019363790093A3790B4A1F
:105190000B481E211AF0AEFC09480BB030BD09497E
:1051A000E6E70949E4E70949E2E7094A0A2128460E
:1051B0001AF0A0FCDFE700BF9D830200BF8302005E
:1051C00039390020A4830200AB830200B5830200BA
:1051D00074A902002DE9F341254D0646174698466D
:1051E000BFF35B8F2B68BFF35B8FDA0723D538B92A
:1051F000204A214801211CF058F96FF001001BE002
:1052000001A91CF0DBFA02280446F6D102461B492C
:10521000304621F03EF90028EFD1BFF35B8F2B68B9
:10522000BFF35B8FC3F3C0061B0708D5144A1248AF
:1052300021461CF03AF9002002B0BDE8F081A5F14A
:10524000D404072221464046B84706280AD80D4A0A
:10525000094801211CF029F945F8D46CE671C4F81D
:105260000360E8E70723B0FBF3F0E071E3E700BF7A
:10527000D40000201E8D0200486A0200B2830200A2
:105280003F8D0200638D02002DE9F04389B09D79C6
:10529000DDF840905E791F7993F803C093F802E03F
:1052A00093F801801B780C46B9F1000F15D0CDE9B9
:1052B0000639CDE904E81346CDE9027CCDE9005674
:1052C0000D4A1AF017FC002813DBA0422CBF6FF028
:1052D0001500002009B0BDE8F083CDE90583CDE9D4
:1052E00003CE1346CDE90167044A00951AF002FC8B
:1052F000E9E76FF01500EDE7888D0200AC8D020044
:1053000010B5FEF7C5FE044628B1044A0346012144
:1053100003481CF0D3F8204610BD00BFCD8D02001D
:10532000486A020070B504468CB01E461546AAB104
:1053300029B10A4602A804211BF062FB02A90091D0
:105340002B462246242103A8FFF79EFF70B9109A2E
:10535000314603A8FEF718FD0CB070BD0346054AA0
:10536000242103A81AF0C6FB2328F0D96FF01500FA
:10537000F2E700BFF28D020007B50B4B0B48DA795C
:10538000C2EBC202009200221146FFF7CBFF034698
:1053900038B1074A0748012103B05DF804EB1CF05F
:1053A0008DB803B05DF804FB00000020B28302005A
:1053B000F88D0200486A020030B504468DB01546EB
:1053C0009AB129B10A4602A804211BF019FB02A9CF
:1053D00000912B462246242103A8FFF755FF60B910
:1053E00003A81CF0C3F90DB030BD0346044A2421C4
:1053F00003A81AF07FFB2328F2D96FF01500F2E71B
:10540000F28D020007B5009313460A460146034891
:10541000FFF788FF03B05DF804FB00BFF1A60200B0
:105420000A4601460148FFF7C7BF00BFF1A60200C8
:1054300007B5009313460A4601460348FFF772FF7B
:1054400003B05DF804FB00BFEBA6020007B50093B4
:1054500013460A4601460348FFF764FF03B05DF8B0
:1054600004FB00BF0EA6020007B500220346009110
:1054700003481146FFF756FF03B05DF804FB00BF79
:10548000E3A6020008B5024818F016F8002008BD8F
:10549000B0020020F8B51E4DBFF35B8F2B68BFF341
:1054A0005B8F13F0010F2E462FD015F8CD3CA5F1E0
:1054B000D4078BB901F0DAFE044630B1154A16481C
:1054C00001211BF0F2FF2046F8BDFB7923B901F062
:1054D000DDFE04460028F1D1BFF35B8F2B68BFF3DC
:1054E0005B8F5A0701D400F0C3FEBFF35B8F56E811
:1054F000003F23F4006246E800210029F7D1BFF302
:105500005B8F1B0501D5FFF7BDFF0024DBE700BF64
:10551000D4000020138E0200486A020007B50093F1
:1055200013460A4601460348FFF7FCFE03B05DF848
:1055300004FB00BF96AB02000A4601460148FFF794
:105540003BBF00BF96AB020010B586B0094B0A48BE
:1055500003930024CDE904441FF0A4FB03AB0093A4
:10556000064905480A234FF4B06217F0ABFF204606
:1055700006B010BD468E0200500C0020003E0020F8
:105580000146014817F0DEBF500C002001460148DB
:105590001FF05DBB500C002030B50378012B11D0FB
:1055A000022B21D06BB9154B0A4603F1100453F8B6
:1055B000045B42F8045BA342F9D143881A0A8A705B
:1055C000CB7030BD0D4B0A4603F1100453F8045B59
:1055D00042F8045BA342F9D143681A0C180E4A70D2
:1055E0000870C3F30722EAE700F11003013913F84A
:1055F000012901F8012F9842F9D1E2E757B00200E2
:1056000010B51CF0A3FB1FF0AAFB044608B918F064
:1056100037FABFF35B8F064B1B68BFF35B8F0BB191
:105620000A2098471CB9BDE8104018F03DBA10BDDB
:105630000C19002038B5044608481CF0FCF9054652
:1056400048B1631EDBB21F2B96BF054A0021D15C17
:105650000C301CF06BFA284638BD00BF480700200C
:1056600067B002000F2810B50CD80D280CD90A48D5
:105670001CF0E1F9044618B104210C301CF056FA74
:10568000204610BD1328F2D009B10448F0E7BDE868
:1056900010400220FFF7CEBF6C070020DC06002080
:1056A000C3681B78024A034802211CF0E6BB00BF16
:1056B0005E8E0200206A020038B5C5682B7893B967
:1056C000B5F801400F21204602F05EFEEB7805465A
:1056D00050B90A4A118831B96FEA04506FEA105084
:1056E0001080074A137038BD0373012102F06AFD70
:1056F0002846BDE8384002F015BD00BF083900203B
:10570000D839002070B5C3681D78BDB9B3F8016001
:105710000F21304602F038FE044638B9084A0948DD
:1057200033460121BDE870401CF0A7BB294602F0BA
:1057300049FD2046BDE8704002F0F4BC70BD00BFDA
:10574000868E0200206A020010B5C368B3F80140DB
:105750000121204602F018FE38B9064A06482346C1
:105760000121BDE810401CF088BBBDE8104002F0EC
:10577000D9BC00BFAC8E0200206A020010B5C3681D
:105780001C880121204602F0FFFD38B9054A064871
:1057900023460121BDE810401CF06FBBBDE810405E
:1057A00002F0C0BCAC8E0200206A020010B50121DC
:1057B0000C301CF0DCF90378034A0448BDE81040C3
:1057C00001211CF05ABB00BFD08E0200206A0200EB
:1057D000014610B508481CF032F9084908481FF086
:1057E00036FA031E06DA074A0748BDE810400121D1
:1057F0001CF043BB10BD00BF34010020D0020020CC
:10580000900D0020F28E0200206A020010B586B0D2
:1058100003AB002400930749074805944FF0FF337A
:105820004FF48062CDE9034417F04CFE204606B0E9
:1058300010BD00BFC0430020F00C002010B5084C84
:105840000146062294F86F0003F00AF938B994F87B
:105850006F000449BDE81040052203F001B910BDF6
:10586000000000202CB00200024A034801211CF075
:10587000F3BA00BF0F8F0200206A0200B0B50B46DA
:105880000D8A00AF04462946D868FFF743FC8AB06A
:105890006A46094BCDE9053440F20243ADF82430A5
:1058A000064BCDE907504FF4325142F8103F0448FF
:1058B0001CF0E5FABD46B0BD298F020005000001CD
:1058C000206A020070B5C568B5F801600121304654
:1058D00002F05AFD044638B90D4A0E4833460121FC
:1058E000BDE870401CF0C9BA2B783BB9D5F803303D
:1058F000C0F89930D5F80730C0F89D30201D4FF41E
:1059000080311CF0ABFA2046BDE8704002F00ABCC2
:10591000AC8E0200206A02002DE9F84FD0F80C90FE
:10592000018A99F80040A30001338B4200AF63D98C
:105930006D468AB06A463248CDE907310523CDE984
:1059400005044FF4215142F8103F2E481CF097FAFD
:10595000AD46BD46BDE8F88F2B4A2A482B460121AB
:105960001CF08BFA013699F800309E42F1DA09EB0F
:1059700086030F21B3F80150B3F80380284602F0E4
:1059800003FD04460028E7D000F1C00AB8F1000F7B
:1059900006D0656945B91D4A1A4801211CF05CFA18
:1059A000204602F0BFFBDDE7A2692B6863619542E8
:1059B00008BFA361204602F0D7FA17F085FBC5F8AF
:1059C00000B0236AABB9C4E90755BFF35B8F5AE84F
:1059D000003F013B4AE80032002AF8D1BFF35B8F59
:1059E0000021204608F1FF3802F0CAFA1FFA88F8B1
:1059F000CCE71D602562E8E70026B346B3E700BFA9
:105A00004B8F0200206A0200768F0200928F020004
:105A100037B502EBC303044608469A4202D16FF041
:105A20005E0010E0114611F8085BA54211D1038A0F
:105A30005178994209D90848084A009401211BF07D
:105A400047FD6FF0150003B030BD53689847002044
:105A5000F9E70A46E1E700BF206A0200A98F0200C9
:105A60002DE9F0470C4618F00BF8E5682B78022B6F
:105A700075D0042B0AD03E4A3E4801211CF0FDF9A6
:105A80002046FFF7EBFA6FF015040EE0B4F8108033
:105A9000B8F1020F0ED8384A4346364801211CF0AF
:105AA000ECF92046FFF7DAFA002417F0FDFF204654
:105AB000BDE8F08768783E280CD1B8F1030F02D119
:105AC0002E4A4346E9E7EB78012B01D00A2B46D159
:105AD000032704E01CF0AEF90746F8073FD504F1B0
